:020000020000FC
:10000000519A59985098589A0F931F9307E610E009
:100010000093C4001093C50008E10093C10006E0FE
:100020000093C2001F910F91549A5C98249A2C98C7
:10003000579A5F98529A5A9887EC07EC00937A0087
:1000400000E600937C00409A902F27EC20937A00E2
:1000500021E620937C00419AA22F47EC40937A003E
:1000600042E640937C00429AB42F67EC60937A009A
:1000700065E660937C005D9AC62FFF920F931F93F5
:100080002F933F93CF93DF93EF93012F302F0F9355
:100090000091C00005FFFCCF0F91C0E0D0E0E0E090
:1000A0001AE02F93FF1829E0001F2A9509F408C0D1
:1000B000FF1CF11A18F4F10E8894F6CF0894F4CFCF
:1000C0002F91CF2D1AE02F93FF1829E0001F2A95BA
:1000D00009F408C0FF1CF11A18F4F10E8894F6CF49
:1000E0000894F4CF2F91DF2D1AE02F93FF1829E009
:1000F000001F2A9509F408C0FF1CF11A18F4F10E2C
:100100008894F6CF0894F4CF2F91EF2D20E010E3E0
:10011000203029F0213041F0223059F01DC0343612
:10012000C8F0E10F0E2F08C03A30A0F0D10F0D2F0C
:1001300003C0C10F0C2F00C00F930091C00005FF3A
:10014000FCCF0F910093C6000F930091C00005FFF4
:10015000FCCF0F912395DCCFEF91DF91CF913F91B1
:100160002F911F910F91FF90FF920F931F932F9349
:100170003F93CF93DF93EF93032F302F0F93009193
:10018000C00005FFFCCF0F91C0E0D0E0E0E01AE036
:100190002F93FF1829E0001F2A9509F408C0FF1CBF
:1001A000F11A18F4F10E8894F6CF0894F4CF2F9139
:1001B000CF2D1AE02F93FF1829E0001F2A9509F48C
:1001C00008C0FF1CF11A18F4F10E8894F6CF0894B9
:1001D000F4CF2F91DF2D1AE02F93FF1829E0001F95
:1001E0002A9509F408C0FF1CF11A18F4F10E88943E
:1001F000F6CF0894F4CF2F91EF2D20E010E32030BC
:1002000029F0213041F0223059F01DC03436C8F0B9
:10021000E10F0E2F08C03A30A0F0D10F0D2F03C010
:10022000C10F0C2F00C00F930091C00005FFFCCF41
:100230000F910093C6000F930091C00005FFFCCF03
:100240000F912395DCCFEF91DF91CF913F912F91CB
:100250001F910F91FF90FF920F931F932F933F9346
:10026000CF93DF93EF93052F302F0F930091C000B2
:1002700005FFFCCF0F91C0E0D0E0E0E01AE02F9343
:10028000FF1829E0001F2A9509F408C0FF1CF11A85
:1002900018F4F10E8894F6CF0894F4CF2F91CF2D57
:1002A0001AE02F93FF1829E0001F2A9509F408C0CF
:1002B000FF1CF11A18F4F10E8894F6CF0894F4CFCD
:1002C0002F91DF2D1AE02F93FF1829E0001F2A95A8
:1002D00009F408C0FF1CF11A18F4F10E8894F6CF47
:1002E0000894F4CF2F91EF2D20E010E3203029F077
:1002F000213041F0223059F01DC03436C8F0E10FF2
:100300000E2F08C03A30A0F0D10F0D2F03C0C10F3F
:100310000C2F00C00F930091C00005FFFCCF0F9180
:100320000093C6000F930091C00005FFFCCF0F9112
:100330002395DCCFEF91DF91CF913F912F911F91CA
:100340000F91FF90FF920F931F932F933F93CF93A3
:10035000DF93EF93072F302F0F930091C00005FF1D
:10036000FCCF0F91C0E0D0E0E0E01AE02F93FF183F
:1003700029E0001F2A9509F408C0FF1CF11A18F49F
:10038000F10E8894F6CF0894F4CF2F91CF2D1AE078
:100390002F93FF1829E0001F2A9509F408C0FF1CBD
:1003A000F11A18F4F10E8894F6CF0894F4CF2F9137
:1003B000DF2D1AE02F93FF1829E0001F2A9509F47A
:1003C00008C0FF1CF11A18F4F10E8894F6CF0894B7
:1003D000F4CF2F91EF2D20E010E3203029F02130D1
:1003E00041F0223059F01DC03436C8F0E10F0E2F15
:1003F00008C03A30A0F0D10F0D2F03C0C10F0C2F51
:1004000000C00F930091C00005FFFCCF0F91009337
:10041000C6000F930091C00005FFFCCF0F912395FC
:10042000DCCFEF91DF91CF913F912F911F910F91F1
:10043000FF90082F00937A00092F00937C00009111
:100440007A00006400937A0000917A0006FDFCCFE8
:100450000091780010917900282F20937A002A2F9C
:1004600020937C0020917A00206420937A002091D0
:100470007A0026FDFCCF2091780030917900482F3A
:1004800040937A004B2F40937C0040917A00406467
:1004900040937A0040917A0046FDFCCF409178006D
:1004A00050917900682F60937A006C2F60937C00E4
:1004B00060917A00606460937A0060917A0066FDD2
:1004C000FCCF60917800709179000F930F930091A9
:1004D000C00005FFFCCF0F91012F0093C6000F93C2
:1004E0000091C00005FFFCCF0F910F912F938F93C8
:1004F0009F9322E08EE39CE90197F1F72A95D1F7CB
:1005000000009F918F912F910F930F930091C00046
:1005100005FFFCCF0F91032F0093C6000F930091AE
:10052000C00005FFFCCF0F910F912F938F939F93E6
:1005300022E08EE39CE90197F1F72A95D1F70000BC
:100540009F918F912F910F930F930091C00005FF02
:10055000FCCF0F91052F0093C6000F930091C000B0
:1005600005FFFCCF0F910F912F938F939F9322E064
:100570008EE39CE90197F1F72A95D1F700009F914E
:100580008F912F910F930F930091C00005FFFCCF27
:100590000F91072F0093C6000F930091C00005FF35
:1005A000FCCF0F910F912F938F939F9322E08EE3B7
:1005B0009CE90197F1F72A95D1F700009F918F915F
:1005C0002F91103810F02C9A01C02C98383C10F460
:1005D0005F9801C05F9A503810F45C9801C05C9A33
:0C05E000703810F05A9849CD5A9A47CD57
:00000001FF
